S00F000050726F6A6563742E737265633E
S1130000B0C00000CEC00000CCC00000CAC00000D8
S1130010C8C00000C6C00000C4C00000C2C00000C8
S1130020C0C00000BEC00000BCC00000BAC00000D8
S1130030B8C00000B6C00000B4C00000B2C00000E8
S1130040B0C00000AEC00000ACC00000AAC00000F8
S1130050A8C00000A6C00000A4C00000A2C0000008
S1130060A0C000009EC000009CC000009AC0000018
S113007098C0000096C0000094C0000092C0000028
S1130080F0C400008EC000008CC000008AC00000D4
S113009088C0000086C0000084C0000082C0000048
S11300A080C000007EC000007CC000007AC0000058
S11300B078C0000076C0000074C0000072C0000068
S11300C070C000006EC000006CC000006AC0000078
S11300D068C0000066C0000064C0000062C0000088
S11300E060C00000AE0EAE0EAE0EE40ED40EE10EF5
S11300F0AE0EAE0EE40ED40E09E416E10F2EF1E7B7
S1130100EF2EF6E1FF2EF02D80914816882311F191
S11301100FB6F8940F92D8011596ED91FC911697AD
S1130120C681D781CE010296E3D280913E168150DA
S113013080933E16809148168150809348160F9004
S11301400FBE8F89988D0CD2CE010AD280914816A9
S11301508111DECFF7018081823008F0ABD331D238
S1130160D3CF11241FBECFEFD1E2DEBFCDBF00E05D
S11301700CBF14E0A0E0B2E0E8E3FEE100E00BBF56
S113018002C007900D92A832B107D9F726E1A8E280
S1130190B4E001C01D92AD3BB207E1F798D00C94D6
S11301A01A0F2ECF8F938FB78F93F8948091B9162F
S11301B08F5F8093B9168091BA168F4F8093BA16C9
S11301C08091BB168F4F8093BB168091BC168F4FC6
S11301D08093BC168F918FBF8F910895CF93DF9337
S11301E01F92CDB7DEB710E000E0FF24F394799BB3
S11301F006C00F5F0A30B8F019820BE014C01F5F0D
S11302001A3020F0F98200E01BE001C000E022E097
S113021040E050E0BE016F5F7F4F8091B316909134
S1130220B41650D5E4CF10E0F2CFCF93DF9300D0D3
S1130230CDB7DEB719820E94020A9B838A834FEFEF
S11302405FEFBE016F5F7F4F8091B3169091B4163C
S11302508CD68981882311F01E9A01C02E986CE3F4
S113026070E0CE0102960E943C0BE9CFCF93DF935E
S113027000D0CDB7DEB719820E94020A9B838A831D
S11302804FEF5FEFBE016F5F7F4F8091B316909188
S1130290B4166BD660E080E0ACD082E092E04FD040
S11302A08981882339F060E080E0A3D08DE092E07A
S11302B046D006C060E080E09CD089E192E03FD067
S11302C062E270E0CE0102960E943C0BD9CF269ADE
S11302D08198899A9BD07FD040E061E081E0C8D4C6
S11302E09093B4168093B316E12CF12C01E020E036
S11302F030E044E650E062E272E08EEE90E04CD7EB
S113030020E030E044E650E06CE272E085E191E008
S113031043D720E030E044E650E060E372E086E357
S113032091E03AD70E94D109FFCFCF93C82F2C98E0
S113033069D08C2F73D02C9A67D0CF910895EF9207
S1130340FF920F931F93CF93DF938C012C9A5AD073
S1130350F80101900020E9F73197E01BF10B1E161C
S11303601F062CF5E8010E0F1F1F1EC0288130E068
S113037020523109F901EE0FFF1FEE0FFF1FE20FAC
S1130380F31FE55CFD4FEE0DFF1D808147D08FEF1D
S1130390E81AF80A85E0E816F10441F780E03ED057
S11303A021960C171D0719F0E12CF12CDFCF2CD06E
S11303B0DF91CF911F910F91FF90EF9008952D98A9
S11303C02FEF81EE94E0215080409040E1F700C08F
S11303D000002D9A0895F3DF81E2A7DF80ECA5DF0A
S11303E087E0A3DF83E1A1DF80E29FDF8CE09DCF84
S11303F00895CF93C62F806898DF8C2F806495DF93
S1130400CF91089528980895289A089587E384B988
S11304102D9A2398289A81E58CBD08958EBD0DB43C
S113042007FEFDCF08950F931F93CF93DF93EC0145
S1130430E3D78091280481111DC0EDE2F4E082E34A
S113044094E09183808313821282E9E2F4E08FEFD7
S113045091E19383828311821082A1E3B4E0149624
S11304609C938E9313971296FC93EE93119781E0CD
S113047080932804209709F46AC09E012C5F3F4FA3
S11304802396CE3FD14108F05FC0E0912D04F09156
S11304902E04ADE2B4E002C0DF01FC01828193814D
S11304A08217930720F4808191810097A9F7C4E013
S11304B0E932FC0709F448C0CD91DC9111978E0113
S11304C00C5F1F4F808191818D939C9382819381D6
S11304D0821B930B8930910510F1BF01620F731FCA
S11304E0DB0113969C938E93129733832283129687
S11304F04D915C9113978DE294E001C0CD01EC0124
S1130500A881B98112962D913C9113972417350730
S1130510A8F3EB01B983A883DC016D937C938091EC
S113052000029091010222813381821B930B9093EC
S11305300102809300020E94C30A0115110551F4BF
S113054059D000E010E006C00E94C30AF9CF0E940F
S1130550C30AF6CFC801DF91CF911F910F9108957F
S11305600F931F93CF93DF93009731F1EC018C012C
S11305700450110941D7F80142815381ADE2B4E03E
S113058001C0DF01ED91FC91119722813381241781
S11305903507B8F32497F983E8830D931C932091CE
S11305A00002309101028A819B81820F931F9093F4
S11305B0010280930002E7D7DF91CF911F910F9141
S11305C008958FEF80937E0080937D0080B7877FAE
S11305D080BF80B7806880BF83B7817F83BF0FB639
S11305E0F8940F9283B7816083BF0F900FBE8895F4
S11305F013BE0895279A2F9A2FEF80E792E0215097
S113060080409040E1F700C000001F9AF5CF279A80
S11306102F9A2FEF87EA91E6215080409040E1F72E
S113062000C000001F9AF5CFFC01039692838183DA
S11306302FEF3FEF348323839683858390878783CB
S113064010820895FC01118610860895CF93DF93DC
S11306509C01FB01DC011196CD91DC911297D383AF
S1130660C2838C819D81958384838C819D81DC01EF
S113067013967C936E9312977D836C8331872087C6
S1130680F90180818F5F8083DF91CF910895CF93AB
S1130690DF93EB01488159814F3F2FEF520721F43B
S11306A0FC01A781B0850DC0DC01139601C0DF01F8
S11306B01296ED91FC9113972081318142175307D3
S11306C0B0F71296ED91FC911397FB83EA83D583DF
S11306D0C483BD83AC831396DC93CE93129799871E
S11306E08887FC0120812F5F2083DF91CF910895BB
S11306F0CF93DF93FC01A085B185C281D38184812E
S113070095819D838C83C481D581828193819B83D0
S11307108A8311968D919C911297E817F90731F409
S11307208481958112969C938E93119711861086DD
S11307308C9181508C938C91DF91CF91089531E10C
S1130740FC013083319722E220833197A3E3A08315
S1130750319760833197708331971082319710827B
S1130760319760E860833197108231971082319716
S11307701082319762E06083319763E06083319740
S113078064E06083319765E06083319766E060835D
S1130790319767E06083319768E06083319769E05F
S11307A06083319760E1608331973083319732E120
S11307B03083319733E13083319734E1308331979B
S11307C035E13083319736E13083319737E1308337
S11307D0319738E13083319739E13083319730E212
S11307E03083319731E2308331972083319723E28C
S11307F020833197408331975083319726E22083B9
S1130800319727E22083319728E22083319729E228
S11308102083319720E32083319721E32083899734
S1130820089588EC90E09093B6168093B516909353
S1130830B8168093B71684E08093990081EE809374
S113084098008BE080939100E1E7F0E08081826082
S11308508083A0919516B0919616CD91CDBFDD9170
S1130860DEBFFF91EF91DF91CF91BF91AF919F9147
S11308708F917F916F915F914F913F912F911F9134
S11308800F91FF90EF90DF90CF90BF90AF909F902B
S11308908F907F906F905F904F903F902F901F901C
S11308A00F900CBE0F900BBE0F900FBE0F900895CB
S11308B081E008950F920FB6F8940F920BB60F9241
S11308C00CB60F921F9211242F923F924F925F9277
S11308D06F927F928F929F92AF92BF92CF92DF924C
S11308E0EF92FF920F931F932F933F934F935F9336
S11308F06F937F938F939F93AF93BF93CF93DF9324
S1130900EF93FF93A0919516B09196160DB60D92A4
S11309100EB60D92EBD6A0919516B0919616CD9188
S1130920CDBFDD91DEBFFF91EF91DF91CF91BF91FC
S1130930AF919F918F917F916F915F914F913F9173
S11309402F911F910F91FF90EF90DF90CF90BF9068
S1130950AF909F908F907F906F905F904F903F905B
S11309602F901F900F900CBE0F900BBE0F900FBED8
S11309700F9008950F920FB6F8940F920BB60F9242
S11309800CB60F921F9211242F923F924F925F92B6
S11309906F927F928F929F92AF92BF92CF92DF928B
S11309A0EF92FF920F931F932F933F934F935F9375
S11309B06F937F938F939F93AF93BF93CF93DF9363
S11309C0EF93FF93A0919516B09196160DB60D92E4
S11309D00EB60D9213BE8091B7169091B81601977A
S11309E09093B8168093B716892B49F4DBDB80917A
S11309F0B5169091B6169093B8168093B7160CD589
S1130A00811174D6A0919516B0919616CD91CDBF53
S1130A10DD91DEBFFF91EF91DF91CF91BF91AF9157
S1130A209F918F917F916F915F914F913F912F9102
S1130A301F910F91FF90EF90DF90CF90BF90AF90F8
S1130A409F908F907F906F905F904F903F902F90EA
S1130A501F900F900CBE0F900BBE0F900FBE0F9007
S1130A60089588DF18950FB6F8940F92FC01928DC3
S1130A700F900FBE81E0911180E008950F931F93B2
S1130A80CF93DF93EC01042F1A8D4C8D41110BC0D1
S1130A9088819981892B09F041C08A819B816AD719
S1130AA01B821A8242C0011117C050E08C819D81C3
S1130AB00E940A0F2C8D8C819D81820F911D9D8334
S1130AC08C832A813B818217930750F18881998115
S1130AD09D838C8380E029C050E08E819F810E9499
S1130AE00A0F8C8D90E09195819591092E813F811B
S1130AF0280F391F3F832E834881598124173507D6
S1130B0030F42A813B81820F931F9F838E830230AE
S1130B1049F4112349F0115080E007C080E005C07A
S1130B2080E003C080E001C080E01F5F1A8FDF9186
S1130B30CF911F910F910895FC01448D4423A9F096
S1130B4050E026813781240F351F37832683828125
S1130B5093812817390720F08081918197838683B8
S1130B60CB01668177810C940A0F0895EF92FF926E
S1130B700F931F93CF938C010FB6F8940F92FC013F
S1130B80C68D1C169CF48189811106C00FC0F80122
S1130B908189811105C00AC07801F1E1EF0EF11CD1
S1130BA0C7014ED68111D4D6C15089F78FEFF80111
S1130BB0868F0F900FBE0FB6F8940F92C58D1C163A
S1130BC09CF48085811106C00FC0F80180858111D5
S1130BD005C00AC07801F8E0EF0EF11CC70130D659
S1130BE08111B6D6C15089F78FEFF801858F0F9028
S1130BF00FBECF911F910F91FF90EF900895CF9367
S1130C00DF93EC010FB6F8940F92488159812C8D33
S1130C1030E07B8D729FC001739F900D1124FA0107
S1130C20E80FF91FFB83EA831A8E5D834C83821BD2
S1130C30930B840F951F9F838E838FEF8D8F8E8FE1
S1130C4061110AC08885882369F0CE010896F8D519
S1130C50882341F02FDE06C0CE010896E5DCCE01E4
S1130C604196E2DC0F900FBE81E0DF91CF910895B1
S1130C700F931F93CF93DF93082F162F6623B1F0A2
S1130C80869FC00111244F96CEDBEC01009739F406
S1130C9013C00B8F1C8F61E0CE01B1DF0DC04F96E6
S1130CA099838883F6CFD983C883F3CF8FE190E00B
S1130CB0BADBEC01892BB9F7CE01DF91CF911F91FB
S1130CC00F9108959F92AF92BF92CF92DF92EF92CD
S1130CD0FF920F931F93CF93DF9300D01F921F9225
S1130CE0CDB7DEB78C016B015D834C83A22EB12C92
S1130CF0992493947C0188E0E80EF11C0FB6F894D3
S1130D000F92F801928D838D981718F0F2E0AF12CC
S1130D1015C04A2DB601C801B1DEF80191899923A5
S1130D2039F0C80141968CD5882321F0C3DD02C077
S1130D308111C0DD0F900FBE81E045C08C819D8183
S1130D40892B21F40F900FBE80E03DC0B11004C088
S1130D50CE010196BDD5B92C0F900FBE4DD30FB661
S1130D60F8940F92F801858D8F3F09F4158EF801E0
S1130D70868D8F3F09F4168E0F900FBEBE016C5FF7
S1130D807F4FCE010196AFD5811119C00FB6F894EB
S1130D900F92F801928D838D0F900FBE98130BC0A4
S1130DA06C817D81C70123D5C801E0DEECD38111BC
S1130DB0A5CF80DDA3CFC801D9DEE5D39FCFC8017D
S1130DC0D5DEE1D380E00F900F900F900F900F903D
S1130DD0DF91CF911F910F91FF90EF90DF90CF9013
S1130DE0BF90AF909F900895EF92FF920F931F933F
S1130DF0CF93DF938A01FC01528D338D531710F08A
S1130E002230E1F4422F7801EC011E8D37DE1F3FC2
S1130E1079F489898823A1F0CE01419611D58823DC
S1130E2089F0E114F10481F081E0F70180830DC0C1
S1130E30FF24F394F10EFE8E81E007C080E005C02C
S1130E4081E003C081E001C081E0DF91CF911F9177
S1130E500F91FF90EF9008959F92AF92BF92CF921F
S1130E60DF92EF92FF920F931F93CF93DF9300D003
S1130E701F921F92CDB7DEB78C015B015D834C835B
S1130E80E12C992493946C0181E1C80ED11C0FB616
S1130E90F8940F92F801F28CFF2091F0B501C8018B
S1130EA04BDEFA94F801F28E8085882329F0C8017C
S1130EB00896C6D48111FEDC0F900FBE81E044C0B9
S1130EC08C819D81892B21F40F900FBE80E03CC062
S1130ED0E11004C0CE010196FBD4E92C0F900FBEA3
S1130EE08BD20FB6F8940F92F801858D8F3F09F4D9
S1130EF0158EF801868D8F3F09F4168E0F900FBE64
S1130F00BE016C5F7F4FCE010196EDD4811113C0F9
S1130F10C801A9DD882359F06C817D81C60167D49D
S1130F20C80124DE30D38111B2CFC4DCB0CFC801F4
S1130F301DDE29D3ACCFC80119DE25D3C80193DD4A
S1130F40882309F4A4CF80E00F900F900F900F90A6
S1130F500F90DF91CF911F910F91FF90EF90DF9051
S1130F60CF90BF90AF909F900895AF92BF92CF92D1
S1130F70DF92EF92FF920F931F93CF93DF9300D0F2
S1130F801F921F92CDB7DEB78C016B015D834C833A
S1130F90B12CAA24A3947C0181E1E80EF11C0FB6C4
S1130FA0F8940F92F801828D8823A1F0E680F780EF
S1130FB0B601C801C1DDF801F782E6828189882380
S1130FC029F0C80141963CD4811174DC0F900FBE06
S1130FD081E044C08C819D81892B21F40F900FBE48
S1130FE080E03CC0B11004C0CE01019671D4BA2C8B
S1130FF00F900FBE01D20FB6F8940F92F801858DB1
S11310008F3F09F4158EF801868D8F3F09F4168EF3
S11310100F900FBEBE016C5F7F4FCE01019663D46B
S1131020811113C0C8011FDD882359F06C817D81B3
S1131030C701DDD3C8019ADDA6D28111B0CF3ADC55
S1131040AECFC80193DD9FD2AACFC8018FDD9BD25A
S1131050C80109DD882309F4A2CF80E00F900F9026
S11310600F900F900F90DF91CF911F910F91FF90F0
S1131070EF90DF90CF90BF90AF900895CF93DF9320
S1131080EC010FB6F8940F928D8D8F3F09F41D8EED
S11310908E8D8F3F09F41E8E0F900FBE8A8D8111A5
S11310A003C0CE014196B4D3CE0160DDDF91CF9170
S11310B00895E0915D16F0915E168081811107C05C
S11310C08FEF9FEF90933516809334160895E09137
S11310D05D16F0915E160580F681E02D0680F7819D
S11310E0E02D828193819093351680933416089570
S11310F0FF920F931F93CF93DF93EC01F62E009191
S11311003C1610913D168091951690919616029674
S1131110EFDACF3F8FEFD80761F4FF2051F06091F1
S11311209516709196166E5F7F4F8FE396E18EDA77
S11311302DC0C00FD11FE0919516F0919616D38360
S1131140C283C017D10760F460919516709196160A
S113115080915B1690915C166E5F7F4F98DA16C093
S1131160609195167091961680915D1690915E1619
S11311706E5F7F4F8CDA8091341690913516C817C4
S1131180D90720F4D0933516C0933416DF91CF914C
S11311901F910F91FF9008954F925F926F927F92EB
S11311A08F929F92AF92BF92CF92DF92EF92FF9273
S11311B00F93CF93DF934C016B015A012901CA01AC
S11311C032D93C01892B09F4DBC088E290E02BD9A9
S11311D0EC01892BA9F0788E6F8AA50165EA70E08D
S11311E0C30121D681E0A81AB1088F89988DA80E71
S11311F0B91ED6018C91898F8C91811104C017C0BE
S1131200C301AED9BDC0AE01465E5F4FF601319653
S1131210B8E0CB0ED11CCF012191DA012D93AD01A1
S1131220DC018C91882319F0EC15FD05A1F718A2B7
S1131230043008F003E00E8B09A31AA26E01B2E099
S1131240CB0ED11CC601FED9CE010C96FBD9D98791
S1131250C88784E090E0801B91099D878C87DB8B95
S1131260CA8B1BA21CA21DA21EA21FA2A201B40112
S1131270C50165DA99838883E114F10419F0F70153
S1131280D183C0830FB6F8940F9280913E168F5F7E
S113129080933E168091951690919616892B89F528
S11312A0D0939616C093951680913E16813009F01E
S11312B038C081E796E1B8D98AE796E1B5D983E8E1
S11312C096E1B2D98CE896E1AFD988E696E1ACD93B
S11312D08FE596E1A9D982E596E1A6D989E496E15C
S11312E0A3D98FE396E1A0D988E696E190935E16A0
S11312F080935D168FE596E190935C1680935B1660
S113130010C080913A1681110CC0E0919516F091AD
S1131310961696898E89891720F0D0939616C093D5
S11313209516809136168F5F809336168E8990912C
S11313303B16981710F480933B1690E09C01220F03
S1131340331F220F331F220F331F820F931FB60147
S11313508F58994E7BD90F900FBE80913A168823EF
S113136059F0E0919516F091961696898E89981702
S113137028F4A0DA81E005C081E003C081E001C067
S11313808FEFDF91CF910F91FF90EF90DF90CF908F
S1131390BF90AF909F908F907F906F905F904F9091
S11313A00895EF92FF920F930F2EF2E3EF2EF6E1E2
S11313B0FF2EF02D00E020E030E040E253E06BE14E
S11313C074E08CE790E0E8DE813091F46AD38130F8
S11313D079F4F8948FEF9FEF909335168093341639
S11313E081E080933A1610923D1610923C1619DA59
S11313F00F91FF90EF900895809131168F5F809345
S1131400311608950FB6F8940F9280913C1690917E
S11314103D160F900FBE0895CF92DF92EF92FF9288
S11314200F931F93CF93DF9380913116811195C051
S1131430E0903C16F0903D168FEFE81AF80AF0920F
S11314403D16E0923C16E114F104B1F480915D166E
S113145090915E1620915B1630915C1630935E1667
S113146020935D1690935C1680935B1680913716DB
S11314708F5F809337161DDE809134169091351658
S1131480E816F90610F4D12C50C0D12CCC24C39406
S1131490E0915D16F0915E168081811107C08FEF97
S11314A09FEF90933516809334163FC0E0915D16FC
S11314B0F0915E160580F681E02DC681D7818A8180
S11314C09B81E816F90628F4909335168093341618
S11314D02CC08E010E5F1F4FC8010AD98C899D89CB
S11314E0892B19F0CE010C9603D98E8990913B1665
S11314F0981710F480933B1690E09C01220F331F41
S1131500220F331F220F331F820F931FB8018F58EE
S1131510994E9CD8E0919516F09196169E898689ED
S1131520981708F4B5CFDC2CB3CFE0919516F09161
S11315309616868990E0FC01EE0FFF1FEE0FFF1F49
S1131540EE0FFF1F8E0F9F1FFC01EF58F94E808195
S1131550823048F0DD24D39406C0809139168F5F21
S113156080933916D12C80913816882311F0DD240C
S1131570D3948D2DDF91CF911F910F91FF90EF9018
S1131580DF90CF900895DF92EF92FF920F931F9315
S1131590CF93DF930FB6F8940F9280913116815058
S11315A08093311680913116811159C080913E1675
S11315B0811130C057C0D7011596ED91FC91169753
S11315C0C681D781CE010C9693D88E010E5F1F4F32
S11315D0C8018ED88E8990913B16981710F4809389
S11315E03B1690E09C01220F331F220F331F220F62
S11315F0331F820F931FB8018F58994E27D8E0915B
S11316009516F09196169E898689981768F0D0925F
S113161038160AC0C0E0D0E00F2EF2E5EF2EF6E156
S1131620FF2EF02DDD24D394F70180818111C3CFE7
S1131630CD2B09F03EDDC0913916CC2349F0D1E021
S1131640EBDE8111D0933816C150D1F710923916C0
S113165080913816882329F02DD981E003C080E0D9
S113166001C080E00F900FBEDF91CF911F910F91C9
S1131670FF90EF90DF9008950F931F93CF93DF9324
S11316808C01EB01B9DE40913C1650913D16F801F6
S113169020813181C9018C0F9D1F4217530748F4E3
S11316A082179307D0F4918380834817590760F415
S11316B007C08217930768F04817590750F00DC008
S11316C060E0841B950B14DD5EDF81110AC0F2D843
S11316D008C0F80191838083F3CFF801918380835C
S11316E0F3CFDF91CF911F910F910895809131161F
S11316F0882321F081E080933816089510923816DB
S1131700A0919516B0919616E0919516F0919616C3
S11317102D913C918789908D8217930760F0609199
S11317209516709196168091951690919616675E0F
S11317307F4F0E94070320913B16822F90E0FC010B
S1131740EE0FFF1FEE0FFF1FEE0FFF1FE80FF91F35
S1131750EF58F94E3081311111C02150822F90E0A1
S1131760FC01EE0FFF1FEE0FFF1FEE0FFF1FE80F30
S1131770F91FEF58F94E3081332379F3AC01440F4C
S1131780551F440F551F440F551F480F591FDA01A9
S1131790AF58B94E1196ED91FC9112970280F381E6
S11317A0E02D1296FC93EE9311974C58594EE41782
S11317B0F50729F442815381FD0152834183FC01E1
S11317C0EE0FFF1FEE0FFF1FEE0FFF1F8E0F9F1F69
S11317D0FC01EF58F94E0180F281E02D868197815A
S11317E0909396168093951620933B160895CF9365
S11317F0DF93EB016091951670919616645F7F4FAD
S11318000E94470361E0CE0173DCDF91CF9108951C
S11318100F931F93CF938B01C42F609195167091F2
S11318209616645F7F4F0E942603CC2311F00FEFBE
S11318301FEF6C2FC8015CDCCF911F910F910895AD
S11318400F931F93CF93DF93DC011596ED91FC91D9
S11318501697C681D7818E01045F1F4FC8010E946D
S113186078038091311681111CC00A501109C801F6
S11318700E9478038E8990913B16981710F48093F8
S11318803B1690E09C01220F331F220F331F220FBF
S1131890331F820F931FB8018F58994E0E9426035D
S11318A005C0B80182E596E10E942603E0919516F1
S11318B0F09196169E898689891720F481E0809399
S11318C0381601C080E0DF91CF911F910F910895E8
S11318D020913716FC01208320913C1630913D164F
S11318E0328321830895CF93DF930FB6F8940F9238
S11318F020913C1630913D16DB014D915C914F3F98
S1131900BFEF5B07E9F0EC01E981FA81A09137169A
S1131910B881BA1719F02E173F07A0F42E1B3F0BFE
S11319202417350740F4FB01421B530B51834083BA
S1131930CFDF80E008C0FB011182108281E003C088
S113194080E001C081E00F900FBEDF91CF91089538
S113195081E080933816089580913A16882331F0F7
S113196080913116882321F080E0089581E0089564
S113197082E008950F931F93CF93DF93FC01892B8B
S113198079F182A1815082A3268991A1291751F16D
S113199081112AC0EF018F010E5F1F4FC8010E9401
S11319A0780389A18E8B24E030E0281B31093D8720
S11319B02C8790913B16981710F480933B1690E077
S11319C09C01220F331F220F331F220F331F820F5C
S11319D0931FB8018F58994E0E94260381E005C0D9
S11319E080E003C080E001C080E0DF91CF911F91CF
S11319F00F910895FC017383628391878087461752
S1131A00570790F0421B530B848595854817590757
S1131A10E0F4BF016E5F7F4F80919D1690919E16FA
S1131A200E94470380E008954217530718F4621791
S1131A30730768F4BF016E5F7F4F80919F1690918A
S1131A40A0160E94470380E0089581E0089581E094
S1131A5008950FB6F8940F9280919B1690919C165E
S1131A60892BE1F48AEA96E10E94140381EA96E163
S1131A700E9414038AEA96E19093A01680939F161D
S1131A8081EA96E190939E1680939D1640E065E06E
S1131A908AE0EED890939C1680939B160F900FBE0D
S1131AA00895EF92FF920F93D4DF80919B1690914B
S1131AB09C16892B89F00F2EF9E9EF2EF6E1FF2E03
S1131AC0F02D03E020E030E040E253E060E274E017
S1131AD083E29EE061DB01C080E00F91FF90EF9014
S1131AE008950F931F93CF93DF9300D01F921F92FB
S1131AF0CDB7DEB7E0919B16F0919C16309751F16B
S1131B00D90169835B834A839D838C836630D4F4D3
S1131B1023DF823059F420E0A801BE016F5F7F4FBC
S1131B2080919B1690919C16CDD815C020E040E082
S1131B3050E0BE016F5F7F4F80919B1690919C1681
S1131B40C1D809C020E0AD01BE016F5F7F4FCF0156
S1131B504BD901C080E00F900F900F900F900F9021
S1131B60DF91CF911F910F910895AF92BF92CF92C1
S1131B70DF92EF92FF920F931F93CF93DF936C0149
S1131B8041DC7C018091971690919816E816F9062D
S1131B9008F047C02FC00580F681E02DA080B180F9
S1131BA0C681D7818E010E5F1F4FC8010E94780342
S1131BB0E989FA89CE0119958E858130D9F48C850D
S1131BC09D858A0D9B1DA816B90660F49B838A83A4
S1131BD0D987C887B80180919F169091A0160E945A
S1131BE0470308C000E010E020E030E0A50160E019
S1131BF0CE0177DFE0919F16F091A01680818111CC
S1131C00CACF80919D1690919E169093A0168093B2
S1131C109F16F0939E16E0939D1681E0F601808353
S1131C2002C0F6011082F0929816E0929716C7014E
S1131C30DF91CF911F910F91FF90EF90DF90CF90A4
S1131C40BF90AF900895CF93DF9300D000D0CDB76D
S1131C50DEB7CE0101964C0144244394E12CF12CCF
S1131C60512CC82ED92CE0919F16F091A01680819A
S1131C70882309F4B5C00580F681E02DA080B180E9
S1131C80BBDBC40172DF8C018981811142C00A155A
S1131C901B0580F178DCE0919F16F091A016058079
S1131CA0F681E02D66807780C30102960E94780356
S1131CB0D3011E968C911E978130A1F41C966D91D0
S1131CC07C911D976A0D7B1D9501A801C30192DECD
S1131CD0882341F00E2D1F2D2E2D3F2DA501652D9E
S1131CE0C301FFDED3015196ED91FC915297C301DC
S1131CF019956AC0452DB501601B710B80919B1627
S1131D0090919C16BBD93FDC81115EC00E945A049D
S1131D105BC039DC59C0898188230CF455C0AC8080
S1131D20BD80F50182859385892B21F0C50102963A
S1131D300E947803CE01069618DFAC018981082E33
S1131D40000C990BAA0BBB0B8A30910508F03CC020
S1131D50FC018827EE58FF4F8F4F54C02A813B81E6
S1131D60D5011C966D917C911D97620F731FC5015F
S1131D7041DE882349F1D5015196ED91FC915297AA
S1131D80C5011995F50186858130F1F44A815B819D
S1131D9084859585480F591F0E2D1F2D2E2D3F2DFF
S1131DA0652DC5019EDE10C06A817B81D5011D961B
S1131DB07C936E931C97640F751F9A01C5011ADEFC
S1131DC003C0C5010E94B0024E2D5F2D6C2D7D2DE8
S1131DD080919B1690919C163FD881119CCF43CF44
S1131DE00BDBC401C2DE8C018981811192CFE091A9
S1131DF09D16F0919E168081442D8111452DAE2CA7
S1131E00BF2C79CFEE0FFF1F881F8BBF0790F69171
S1131E10E02D1994FB01DC0102C001900D924150A8
S1131E205040D8F70895DC0101C06D9341505040F3
S10B1E30E0F70895F894FFCFD8
S1131E38FF1120202020202020202020005357207C
S1131E487072657373656420005357206672656504
S1131E582000535720737461747573004C45440013
S1131E684E6F6B696120353131300000000000008D
S1131E7800005F00000007000700147F147F14248B
S1131E882A7F2A1223130864623649552250000512
S1131E98030000001C2241000041221C0014083EDB
S1131EA8081408083E08080050300000080808080C
S1131EB808006060000020100804023E5149453EB5
S1131EC800427F400042615149462141454B311847
S1131ED814127F1027454545393C4A494930017158
S1131EE80905033649494936064949291E00363643
S1131EF8000000563600000814224100141414147B
S1131F081400412214080201510906324979413E5C
S1131F187E1111117E7F494949363E414141227F54
S1131F284141221C7F494949417F090909013E4130
S1131F3849497A7F0808087F00417F4100204041D1
S1131F483F017F081422417F404040407F020C0239
S1131F587F7F0408107F3E4141413E7F09090906FD
S1131F683E4151215E7F09192946464949493101B3
S1131F78017F01013F4040403F1F2040201F3F4058
S1131F8838403F631408146307087008076151490F
S1131F984543007F41410002040810200041417F6D
S1131FA800040201020440404040400001020400D1
S1131FB820545454787F484444383844444420389E
S1131FC84444487F3854545418087E0901020C527A
S1131FD852523E7F0804047800447D400020404467
S1131FE83D007F1028440000417F40007C04180411
S1131FF8787C0804047838444444387C141414085D
S1132008081414187C7C0804040848545454200404
S11320183F4440203C4040207C1C2040201C3C4045
S113202830403C44281028440C5050503C446454DC
S11320384C44000836410000007F00000041360887
S1132048001008081008784641467849444C450071
S10B2058546D722053766300FD
S9030000FC
