S00F000050726F6A6563742E737265633E
S1130000B0C00000CEC00000CCC00000CAC00000D8
S1130010C8C00000C6C00000C4C00000C2C00000C8
S1130020C0C00000BEC00000BCC00000BAC00000D8
S1130030B8C00000B6C00000B4C00000B2C00000E8
S1130040B0C00000AEC00000ACC00000AAC00000F8
S1130050A8C00000A6C00000A4C00000A2C0000008
S1130060A0C000009EC000009CC000009AC0000018
S113007098C0000096C0000094C0000092C0000028
S113008053C400008EC000008CC000008AC0000071
S113009088C0000086C0000084C0000082C0000048
S11300A080C000007EC000007CC000007AC0000058
S11300B078C0000076C0000074C0000072C0000068
S11300C070C000006EC000006CC000006AC0000078
S11300D068C0000066C0000064C0000062C0000088
S11300E060C00000110E110E110E470E370E440EA3
S11300F0110E110E470E370E07E414E10F2EFFE622
S1130100EF2EF4E1FF2EF02D80914614882311F197
S11301100FB6F8940F92D8011596ED91FC911697AD
S1130120C681D781CE01029646D280913C1481507B
S113013080933C14809146148150809346140F9010
S11301400FBE8F89988D6FD1CE016DD180914614E9
S11301508111DECFF7018081823008F00ED394D173
S1130160D3CF11241FBECFEFD1E2DEBFCDBF00E05D
S11301700CBF12E0A0E0B2E0EEEFFCE100E00BBF48
S113018002C007900D92A632B107D9F724E1A6E286
S1130190B2E001C01D92AC3BB207E1F77BD00C94F6
S11301A07D0E2ECF8F938FB78F93F8948091B814D0
S11301B08F5F8093B8148091B9148F4F8093B914D2
S11301C08091BA148F4F8093BA148091BB148F4FCF
S11301D08093BB148F918FBF8F910895CF93DF933A
S11301E01F92CDB7DEB70E94650910E000E0FF243E
S11301F0F394799B06C00F5F0A30B8F019820BE0C4
S113020014C01F5F1A3020F0F98200E01BE001C027
S113021000E022E040E050E0BE016F5F7F4F80913C
S1130220B1149091B214B1D4E4CF10E0F2CFCF93D3
S1130230DF931F921F92CDB7DEB70E9465099A83A0
S113024089831E9A60E570E0CE0101960E949F0AA0
S1130250F8CFCF93DF9300D0CDB7DEB719820E94D9
S113026065099B838A834FEF5FEFBE016F5F7F4F0A
S11302708091B1149091B214DBD58981882311F057
S11302801F9A01C02F9A6CE370E0CE0102960E947F
S11302909F0AE9CF269A279A8198899A40E061E0DB
S11302A081E049D49093B2148093B114E12CF12CE1
S11302B001E020E030E044E650E062E072E089E2F0
S11302C091E0CDD620E030E044E650E068E072E012
S11302D087E191E0C4D620E030E044E650E06EE0EF
S11302E072E08EEE90E0BBD6BFD7FFCF0F931F9383
S11302F0CF93DF93EC01E3D78091260281111DC0D7
S1130300EBE2F2E080E392E0918380831382128235
S1130310E7E2F2E08FEF91E193838283118210820E
S1130320AFE2B2E014969C938E9313971296FC93CB
S1130330EE93119781E080932602209709F46AC016
S11303409E012C5F3F4F2396CE3FD14108F05FC002
S1130350E0912B02F0912C02ABE2B2E002C0DF018B
S1130360FC01828193818217930720F4808191811B
S11303700097A9F7C2E0E732FC0709F448C0CD9121
S1130380DC9111978E010C5F1F4F808191818D93B9
S11303909C9382819381821B930B8930910510F188
S11303A0BF01620F731FDB0113969C938E93129708
S11303B03383228312964D915C9113978BE292E0E2
S11303C001C0CD01EC01A881B98112962D913C9117
S11303D0139724173507A8F3EB01B983A883DC012D
S11303E06D937C938091000290910102228133816C
S11303F0821B930B90930102809300020E94260AB1
S11304000115110551F459D000E010E006C00E9416
S1130410260AF9CF0E94260AF6CFC801DF91CF91B0
S11304201F910F9108950F931F93CF93DF9300971C
S113043031F1EC018C010450110941D7F8014281DA
S11304405381ABE2B2E001C0DF01ED91FC91119761
S11304502281338124173507B8F32497F983E8837D
S11304600D931C9320910002309101028A819B819B
S1130470820F931F9093010280930002E7D7DF91CC
S1130480CF911F910F9108958FEF80937E008093F9
S11304907D0080B7877F80BF80B7806880BF83B7C7
S11304A0817F83BF0FB6F8940F9283B7816083BFB7
S11304B00F900FBE889513BE0895279A2F9A2FEF99
S11304C080E792E0215080409040E1F700C00000B6
S11304D01F9AF5CF279A2F9A2FEF87EA91E621509A
S11304E080409040E1F700C000001F9AF5CFFC0166
S11304F00396928381832FEF3FEF34832383968384
S113050085839087878310820895FC011186108665
S11305100895CF93DF939C01FB01DC011196CD91EB
S1130520DC911297D383C2838C819D8195838483CC
S11305308C819D81DC0113967C936E9312977D834D
S11305406C8331872087F90180818F5F8083DF91FD
S1130550CF910895CF93DF93EB01488159814F3FA9
S11305602FEF520721F4FC01A781B0850DC0DC01F7
S1130570139601C0DF011296ED91FC91139720812F
S1130580318142175307B0F71296ED91FC911397FE
S1130590FB83EA83D583C483BD83AC831396DC9346
S11305A0CE93129799878887FC0120812F5F20833F
S11305B0DF91CF910895CF93DF93FC01A085B1859E
S11305C0C281D381848195819D838C83C481D581AB
S11305D0828193819B838A8311968D919C9112973A
S11305E0E817F90731F48481958112969C938E93D0
S11305F01197118610868C9181508C938C91DF9188
S1130600CF91089531E1FC013083319722E22083B8
S11306103197A3E3A0833197608331977083319737
S1130620108231971082319760E86083319710828D
S11306303197108231971082319762E0608331974D
S113064063E06083319764E06083319765E06083A1
S1130650319766E06083319767E06083319768E0A3
S11306606083319769E06083319760E160833197FB
S11306703083319732E13083319733E130833197DE
S113068034E13083319735E13083319736E130837B
S1130690319737E13083319738E13083319739E14D
S11306A03083319730E23083319731E230833197B0
S11306B02083319723E220833197408331975083FD
S11306C0319726E22083319727E22083319728E26D
S11306D02083319729E22083319720E320833197C7
S11306E021E320838997089588EC90E09093B514D2
S11306F08093B4149093B7148093B61484E08093D9
S1130700990081EE809398008BE080939100E1E75B
S1130710F0E0808182608083A0919314B09194145E
S1130720CD91CDBFDD91DEBFFF91EF91DF91CF91F0
S1130730BF91AF919F918F917F916F915F914F91F5
S11307403F912F911F910F91FF90EF90DF90CF90E9
S1130750BF90AF909F908F907F906F905F904F90DD
S11307603F902F901F900F900CBE0F900BBE0F90D8
S11307700FBE0F90089581E008950F920FB6F8947C
S11307800F920BB60F920CB60F921F9211242F9258
S11307903F924F925F926F927F928F929F92AF920D
S11307A0BF92CF92DF92EF92FF920F931F932F93FA
S11307B03F934F935F936F937F938F939F93AF93E5
S11307C0BF93CF93DF93EF93FF93A0919314B091D2
S11307D094140DB60D920EB60D92EBD6A09193140F
S11307E0B0919414CD91CDBFDD91DEBFFF91EF9117
S11307F0DF91CF91BF91AF919F918F917F916F9135
S11308005F914F913F912F911F910F91FF90EF9026
S1130810DF90CF90BF90AF909F908F907F906F901C
S11308205F904F903F902F901F900F900CBE0F90B1
S11308300BBE0F900FBE0F9008950F920FB6F89451
S11308400F920BB60F920CB60F921F9211242F9297
S11308503F924F925F926F927F928F929F92AF924C
S1130860BF92CF92DF92EF92FF920F931F932F9339
S11308703F934F935F936F937F938F939F93AF9324
S1130880BF93CF93DF93EF93FF93A0919314B09111
S113089094140DB60D920EB60D9213BE8091B6143B
S11308A09091B71401979093B7148093B614892B41
S11308B049F478DC8091B4149091B5149093B714F2
S11308C08093B6140CD5811174D6A0919314B09171
S11308D09414CD91CDBFDD91DEBFFF91EF91DF91F7
S11308E0CF91BF91AF919F918F917F916F915F91C4
S11308F04F913F912F911F910F91FF90EF90DF90B7
S1130900CF90BF90AF909F908F907F906F905F90AB
S11309104F903F902F901F900F900CBE0F900BBEE6
S11309200F900FBE0F90089588DF18950FB6F894B6
S11309300F92FC01928D0F900FBE81E0911180E027
S113094008950F931F93CF93DF93EC01042F1A8D17
S11309504C8D41110BC088819981892B09F041C0CC
S11309608A819B816AD71B821A8242C0011117C0F7
S113097050E08C819D810E946D0E2C8D8C819D8117
S1130980820F911D9D838C832A813B81821793075B
S113099050F1888199819D838C8380E029C050E047
S11309A08E819F810E946D0E8C8D90E09195819532
S11309B091092E813F81280F391F3F832E8348815F
S11309C059812417350730F42A813B81820F931F04
S11309D09F838E83023049F4112349F0115080E043
S11309E007C080E005C080E003C080E001C080E073
S11309F01F5F1A8FDF91CF911F910F910895FC0112
S1130A00448D4423A9F050E026813781240F351FFB
S1130A1037832683828193812817390720F08081C8
S1130A20918197838683CB01668177810C946D0EC7
S1130A300895EF92FF920F931F93CF938C010FB6FB
S1130A40F8940F92FC01C68D1C169CF481898111C7
S1130A5006C00FC0F8018189811105C00AC0780160
S1130A60F1E1EF0EF11CC7014ED68111D4D6C1506D
S1130A7089F78FEFF801868F0F900FBE0FB6F894A9
S1130A800F92C58D1C169CF48085811106C00FC081
S1130A90F8018085811105C00AC07801F8E0EF0EE5
S1130AA0F11CC70130D68111B6D6C15089F78FEF3A
S1130AB0F801858F0F900FBECF911F910F91FF907A
S1130AC0EF900895CF93DF93EC010FB6F8940F9253
S1130AD0488159812C8D30E07B8D729FC001739FBA
S1130AE0900D1124FA01E80FF91FFB83EA831A8E93
S1130AF05D834C83821B930B840F951F9F838E838E
S1130B008FEF8D8F8E8F61110AC08885882369F0DD
S1130B10CE010896F8D5882341F02FDE06C0CE0119
S1130B200896E5DCCE014196E2DC0F900FBE81E031
S1130B30DF91CF9108950F931F93CF93DF93082FE5
S1130B40162F6623B1F0869FC00111244F96CEDB89
S1130B50EC01009739F413C00B8F1C8F61E0CE01B8
S1130B60B1DF0DC04F9699838883F6CFD983C883AC
S1130B70F3CF8FE190E0BADBEC01892BB9F7CE011A
S1130B80DF91CF911F910F9108959F92AF92BF92E1
S1130B90CF92DF92EF92FF920F931F93CF93DF9345
S1130BA000D01F921F92CDB7DEB78C016B015D831D
S1130BB04C83A22EB12C992493947C0188E0E80EF6
S1130BC0F11C0FB6F8940F92F801928D838D98174B
S1130BD018F0F2E0AF1215C04A2DB601C801B1DE1B
S1130BE0F8019189992339F0C80141968CD588235D
S1130BF021F0C3DD02C08111C0DD0F900FBE81E082
S1130C0045C08C819D81892B21F40F900FBE80E01B
S1130C103DC0B11004C0CE010196BDD5B92C0F90D2
S1130C200FBE4DD30FB6F8940F92F801858D8F3F08
S1130C3009F4158EF801868D8F3F09F4168E0F90F6
S1130C400FBEBE016C5F7F4FCE010196AFD58111FF
S1130C5019C00FB6F8940F92F801928D838D0F90FE
S1130C600FBE98130BC06C817D81C70123D5C801C9
S1130C70E0DEECD38111A5CF80DDA3CFC801D9DE9E
S1130C80E5D39FCFC801D5DEE1D380E00F900F906C
S1130C900F900F900F90DF91CF911F910F91FF90C4
S1130CA0EF90DF90CF90BF90AF909F900895EF9218
S1130CB0FF920F931F93CF93DF938A01FC01528D10
S1130CC0338D531710F02230E1F4422F7801EC01F8
S1130CD01E8D37DE1F3F79F489898823A1F0CE0168
S1130CE0419611D5882389F0E114F10481F081E063
S1130CF0F70180830DC0FF24F394F10EFE8E81E092
S1130D0007C080E005C081E003C081E001C081E04C
S1130D10DF91CF911F910F91FF90EF9008959F92D3
S1130D20AF92BF92CF92DF92EF92FF920F931F93F5
S1130D30CF93DF9300D01F921F92CDB7DEB78C0103
S1130D405B015D834C83E12C992493946C0181E1D4
S1130D50C80ED11C0FB6F8940F92F801F28CFF2044
S1130D6091F0B501C8014BDEFA94F801F28E80854A
S1130D70882329F0C8010896C6D48111FEDC0F909F
S1130D800FBE81E044C08C819D81892B21F40F909A
S1130D900FBE80E03CC0E11004C0CE010196FBD43C
S1130DA0E92C0F900FBE8BD20FB6F8940F92F80176
S1130DB0858D8F3F09F4158EF801868D8F3F09F4D8
S1130DC0168E0F900FBEBE016C5F7F4FCE01019651
S1130DD0EDD4811113C0C801A9DD882359F06C81B9
S1130DE07D81C60167D4C80124DE30D38111B2CF1E
S1130DF0C4DCB0CFC8011DDE29D3ACCFC80119DED5
S1130E0025D3C80193DD882309F4A4CF80E00F9093
S1130E100F900F900F900F90DF91CF911F910F9132
S1130E20FF90EF90DF90CF90BF90AF909F90089588
S1130E30AF92BF92CF92DF92EF92FF920F931F93E4
S1130E40CF93DF9300D01F921F92CDB7DEB78C01F2
S1130E506B015D834C83B12CAA24A3947C0181E1B2
S1130E60E80EF11C0FB6F8940F92F801828D8823D6
S1130E70A1F0E680F780B601C801C1DDF801F78270
S1130E80E6828189882329F0C80141963CD48111E6
S1130E9074DC0F900FBE81E044C08C819D81892B4E
S1130EA021F40F900FBE80E03CC0B11004C0CE010D
S1130EB0019671D4BA2C0F900FBE01D20FB6F894DC
S1130EC00F92F801858D8F3F09F4158EF801868DF8
S1130ED08F3F09F4168E0F900FBEBE016C5F7F4FDB
S1130EE0CE01019663D4811113C0C8011FDD88238C
S1130EF059F06C817D81C701DDD3C8019ADDA6D28A
S1130F008111B0CF3ADCAECFC80193DD9FD2AACF16
S1130F10C8018FDD9BD2C80109DD882309F4A2CF63
S1130F2080E00F900F900F900F900F90DF91CF9172
S1130F301F910F91FF90EF90DF90CF90BF90AF90F3
S1130F400895CF93DF93EC010FB6F8940F928D8D33
S1130F508F3F09F41D8E8E8D8F3F09F41E8E0F90E6
S1130F600FBE8A8D811103C0CE014196B4D3CE0148
S1130F7060DDDF91CF910895E0915B14F0915C14F2
S1130F808081811107C08FEF9FEF9093331480937A
S1130F9032140895E0915B14F0915C140580F6819D
S1130FA0E02D0680F781E02D8281938190933314A4
S1130FB0809332140895FF920F931F93CF93DF937E
S1130FC0EC01F62E00913A1410913B148091931485
S1130FD0909194140296EFDACF3F8FEFD80761F423
S1130FE0FF2051F060919314709194146E5F7F4FC1
S1130FF08DE394E18EDA2DC0C00FD11FE0919314DC
S1131000F0919414D383C283C017D10760F4609124
S11310109314709194148091591490915A146E5FA2
S11310207F4F98DA16C06091931470919414809154
S11310305B1490915C146E5F7F4F8CDA8091321454
S113104090913314C817D90720F4D0933314C09364
S11310503214DF91CF911F910F91FF9008954F9219
S11310605F926F927F928F929F92AF92BF92CF9234
S1131070DF92EF92FF920F93CF93DF934C016B01BA
S11310805A012901CA0132D93C01892B09F4DBC078
S113109088E290E02BD9EC01892BA9F0788E6F8A35
S11310A0A50165EA70E0C30121D681E0A81AB10860
S11310B08F89988DA80EB91ED6018C91898F8C9139
S11310C0811104C017C0C301AED9BDC0AE01465ED4
S11310D05F4FF6013196B8E0CB0ED11CCF012191C0
S11310E0DA012D93AD01DC018C91882319F0EC1504
S11310F0FD05A1F718A2043008F003E00E8B09A344
S11311001AA26E01B2E0CB0ED11CC601FED9CE01EB
S11311100C96FBD9D987C88784E090E0801B91099D
S11311209D878C87DB8BCA8B1BA21CA21DA21EA2CF
S11311301FA2A201B401C50165DA99838883E11471
S1131140F10419F0F701D183C0830FB6F8940F921C
S113115080913C148F5F80933C1480919314909100
S11311609414892B89F5D0939414C093931480918B
S11311703C14813009F038C08FE694E1B8D988E78F
S113118094E1B5D981E894E1B2D98AE894E1AFD980
S113119086E694E1ACD98DE594E1A9D980E594E1A2
S11311A0A6D987E494E1A3D98DE394E1A0D986E696
S11311B094E190935C1480935B148DE594E1909397
S11311C05A148093591410C08091381481110CC0A2
S11311D0E0919314F091941496898E89891720F0E4
S11311E0D0939414C0939314809134148F5F80939C
S11311F034148E8990913914981710F4809339140B
S113120090E09C01220F331F220F331F220F331F44
S1131210820F931FB60181599B4E7BD90F900FBE4D
S113122080913814882359F0E0919314F091941428
S113123096898E89981728F4A0DA81E005C081E0A8
S113124003C081E001C08FEFDF91CF910F91FF9038
S1131250EF90DF90CF90BF90AF909F908F907F9052
S11312606F905F904F900895EF92FF920F930F2E1F
S1131270F0E3EF2EF4E1FF2EF02D00E020E030E06B
S113128045E550E068E172E08CE790E0E8DE81300B
S113129091F46AD3813079F4F8948FEF9FEF9093AF
S11312A033148093321481E08093381410923B14E9
S11312B010923A1419DA0F91FF90EF9008958091EB
S11312C02F148F5F80932F1408950FB6F8940F9204
S11312D080913A1490913B140F900FBE0895CF92D1
S11312E0DF92EF92FF920F931F93CF93DF9380913E
S11312F02F14811195C0E0903A14F0903B148FEFB5
S1131300E81AF80AF0923B14E0923A14E114F1045A
S1131310B1F480915B1490915C1420915914309134
S11313205A1430935C1420935B1490935A14809352
S11313305914809135148F5F809335141DDE80918C
S1131340321490913314E816F90610F4D12C50C0DD
S1131350D12CCC24C394E0915B14F0915C14808173
S1131360811107C08FEF9FEF909333148093321451
S11313703FC0E0915B14F0915C140580F681E02D90
S1131380C681D7818A819B81E816F90628F4909357
S11313903314809332142CC08E010E5F1F4FC8018A
S11313A00AD98C899D89892B19F0CE010C9603D911
S11313B08E8990913914981710F48093391490E021
S11313C09C01220F331F220F331F220F331F820F62
S11313D0931FB80181599B4E9CD8E0919314F091CE
S11313E094149E898689981708F4B5CFDC2CB3CF62
S11313F0E0919314F0919414868990E0FC01EE0F2F
S1131400FF1FEE0FFF1FEE0FFF1F8E0F9F1FFC012C
S1131410E159FB4E8081823048F0DD24D39406C02C
S1131420809137148F5F80933714D12C80913614B8
S1131430882311F0DD24D3948D2DDF91CF911F915A
S11314400F91FF90EF90DF90CF900895DF92EF928D
S1131450FF920F931F93CF93DF930FB6F8940F92DD
S113146080912F14815080932F1480912F14811117
S113147059C080913C14811130C057C0D7011596D2
S1131480ED91FC911697C681D781CE010C9693D825
S11314908E010E5F1F4FC8018ED88E89909139142A
S11314A0981710F48093391490E09C01220F331F95
S11314B0220F331F220F331F820F931FB80181594C
S11314C09B4E27D8E0919314F09194149E898689B9
S11314D0981768F0D09236140AC0C0E0D0E00F2EFE
S11314E0F0E5EF2EF4E1FF2EF02DDD24D394F70187
S11314F080818111C3CFCD2B09F03EDDC09137141B
S1131500CC2349F0D1E0EBDE8111D0933614C150E5
S1131510D1F71092371480913614882329F02DD9ED
S113152081E003C080E001C080E00F900FBEDF9136
S1131530CF911F910F91FF90EF90DF9008950F933B
S11315401F93CF93DF938C01EB01B9DE40913A14E2
S113155050913B14F80120813181C9018C0F9D1FEA
S11315604217530748F482179307D0F4918380837A
S11315704817590760F407C08217930768F04817A3
S1131580590750F00DC060E0841B950B14DD5EDF3D
S113159081110AC0F2D808C0F80191838083F3CF87
S11315A0F80191838083F3CFDF91CF911F910F9145
S11315B0089580912F14882321F081E080933614BC
S11315C0089510923614A0919314B0919414E0915C
S11315D09314F09194142D913C918789908D8217E6
S11315E0930760F060919314709194148091931414
S11315F090919414675E7F4F0E946A02209139147F
S1131600822F90E0FC01EE0FFF1FEE0FFF1FEE0F85
S1131610FF1FE80FF91FE159FB4E3081311111C052
S11316202150822F90E0FC01EE0FFF1FEE0FFF1FF1
S1131630EE0FFF1FE80FF91FE159FB4E30813323F2
S113164079F3AC01440F551F440F551F440F551F28
S1131650480F591FDA01A159BB4E1196ED91FC9127
S113166012970280F381E02D1296FC93EE9311976A
S11316704E585B4EE417F50729F442815381FD016E
S113168052834183FC01EE0FFF1FEE0FFF1FEE0F8D
S1131690FF1F8E0F9F1FFC01E159FB4E0180F28159
S11316A0E02D8681978190939414809393142093D2
S11316B039140895CF93DF93EB01609193147091E3
S11316C09414645F7F4F0E94AA0261E0CE0173DC30
S11316D0DF91CF9108950F931F93CF938B01C42F64
S11316E06091931470919414645F7F4F0E948902F7
S11316F0CC2311F00FEF1FEF6C2FC8015CDCCF91EE
S11317001F910F9108950F931F93CF93DF93DC01E3
S11317101596ED91FC911697C681D7818E01045FD1
S11317201F4FC8010E94DB0280912F1481111CC03D
S11317300A501109C8010E94DB028E899091391464
S1131740981710F48093391490E09C01220F331FF2
S1131750220F331F220F331F820F931FB8018159A9
S11317609B4E0E94890205C0B80180E594E10E9465
S11317708902E0919314F09194149E8986898917C3
S113178020F481E08093361401C080E0DF91CF9192
S11317901F910F91089520913514FC01208320910D
S11317A03A1430913B14328321830895CF93DF930D
S11317B00FB6F8940F9220913A1430913B14DB0148
S11317C04D915C914F3FBFEF5B07E9F0EC01E9817C
S11317D0FA81A0913514B881BA1719F02E173F0772
S11317E0A0F42E1B3F0B2417350740F4FB01421BCA
S11317F0530B51834083CFDF80E008C0FB0111828B
S1131800108281E003C080E001C081E00F900FBE30
S1131810DF91CF91089581E08093361408958091EB
S11318203814882331F080912F14882321F080E02C
S1131830089581E0089582E008950F931F93CF9354
S1131840DF93FC01892B79F182A1815082A326893F
S113185091A1291751F181112AC0EF018F010E5F67
S11318601F4FC8010E94DB0289A18E8B24E030E067
S1131870281B31093D872C8790913914981710F44F
S11318808093391490E09C01220F331F220F331FE1
S1131890220F331F820F931FB80181599B4E0E9460
S11318A0890281E005C080E003C080E001C080E0DF
S11318B0DF91CF911F910F910895FC01738362838F
S11318C0918780874617570790F0421B530B8485F6
S11318D0958548175907E0F4BF016E5F7F4F8091EB
S11318E09B1490919C140E94AA0280E008954217D0
S11318F0530718F46217730768F4BF016E5F7F4FD4
S113190080919D1490919E140E94AA0280E00895F3
S113191081E0089581E008950FB6F8940F928091C4
S1131920991490919A14892BE1F488EA94E10E9425
S113193077028FE994E10E94770288EA94E1909318
S11319409E1480939D148FE994E190939C1480934A
S11319509B1440E065E08AE0EED890939A1480935B
S113196099140F900FBE0895EF92FF920F93D4DF56
S11319708091991490919A14892B89F00F2EF7E98C
S1131980EF2EF4E1FF2EF02D03E020E030E045E5FA
S113199050E06DE172E086E89DE061DB01C080E02B
S11319A00F91FF90EF9008950F931F93CF93DF93C0
S11319B000D01F921F92CDB7DEB7E0919914F09139
S11319C09A14309751F1D90169835B834A839D83CB
S11319D08C836630D4F423DF823059F420E0A801EC
S11319E0BE016F5F7F4F8091991490919A14CDD866
S11319F015C020E040E050E0BE016F5F7F4F809152
S1131A00991490919A14C1D809C020E0AD01BE0187
S1131A106F5F7F4FCF014BD901C080E00F900F90D3
S1131A200F900F900F90DF91CF911F910F91089518
S1131A30AF92BF92CF92DF92EF92FF920F931F93D8
S1131A40CF93DF936C0141DC7C01809195149091DC
S1131A509614E816F90608F047C02FC00580F681F1
S1131A60E02DA080B180C681D7818E010E5F1F4F0B
S1131A70C8010E94DB02E989FA89CE0119958E8595
S1131A808130D9F48C859D858A0D9B1DA816B906D5
S1131A9060F49B838A83D987C887B80180919D1499
S1131AA090919E140E94AA0208C000E010E020E079
S1131AB030E0A50160E0CE0177DFE0919D14F09164
S1131AC09E1480818111CACF80919B1490919C14A3
S1131AD090939E1480939D14F0939C14E0939B1414
S1131AE081E0F601808302C0F6011082F092961420
S1131AF0E0929514C701DF91CF911F910F91FF9050
S1131B00EF90DF90CF90BF90AF900895CF93DF9385
S1131B1000D000D0CDB7DEB7CE0101964C014424ED
S1131B204394E12CF12C512CC82ED92CE0919D1416
S1131B30F0919E148081882309F4B5C00580F68154
S1131B40E02DA080B180BBDBC40172DF8C018981F0
S1131B50811142C00A151B0580F178DCE0919D14C7
S1131B60F0919E140580F681E02D66807780C30194
S1131B7002960E94DB02D3011E968C911E9781303F
S1131B80A1F41C966D917C911D976A0D7B1D9501A6
S1131B90A801C30192DE882341F00E2D1F2D2E2DA6
S1131BA03F2DA501652DC301FFDED3015196ED91B3
S1131BB0FC915297C30119956AC0452DB501601B6C
S1131BC0710B8091991490919A14BBD93FDC8111C7
S1131BD05EC00E94BD035BC039DC59C08981882383
S1131BE00CF455C0AC80BD80F50182859385892BAA
S1131BF021F0C50102960E94DB02CE01069618DF91
S1131C00AC018981082E000C990BAA0BBB0B8A30FE
S1131C10910508F03CC0FC018827EE58FF4F8F4F18
S1131C2054C02A813B81D5011C966D917C911D97EE
S1131C30620F731FC50141DE882349F1D501519616
S1131C40ED91FC915297C5011995F5018685813076
S1131C50F1F44A815B8184859585480F591F0E2DC7
S1131C601F2D2E2D3F2D652DC5019EDE10C06A81CE
S1131C707B81D5011D967C936E931C97640F751F11
S1131C809A01C5011ADE03C0C5010E9413024E2D3C
S1131C905F2D6C2D7D2D8091991490919A143FD8CD
S1131CA081119CCF43CF0BDBC401C2DE8C0189813F
S1131CB0811192CFE0919B14F0919C148081442D6A
S1131CC08111452DAE2CBF2C79CFEE0FFF1F881F3D
S1131CD08BBF0790F691E02D1994FB01DC0102C043
S1131CE001900D9241505040D8F70895DC0101C095
S1111CF06D9341505040E0F70895F894FFCFF3
S1131CFEFF114C45445F31004C45445F320053574D
S1131D0E207374617475730049444C4500546D72AC
S1091D1E2053766300006F
S9030000FC
